{
  "contractName": "EcommerceStore",
  "abi": [
    {
      "constant": true,
      "inputs": [
        {
          "name": "",
          "type": "uint256"
        }
      ],
      "name": "productToEscrow",
      "outputs": [
        {
          "name": "",
          "type": "address"
        }
      ],
      "payable": false,
      "stateMutability": "view",
      "type": "function"
    },
    {
      "constant": true,
      "inputs": [],
      "name": "productIndex",
      "outputs": [
        {
          "name": "",
          "type": "uint256"
        }
      ],
      "payable": false,
      "stateMutability": "view",
      "type": "function"
    },
    {
      "inputs": [],
      "payable": false,
      "stateMutability": "nonpayable",
      "type": "constructor"
    },
    {
      "anonymous": false,
      "inputs": [
        {
          "indexed": false,
          "name": "productid",
          "type": "uint256"
        },
        {
          "indexed": false,
          "name": "bidId",
          "type": "bytes32"
        },
        {
          "indexed": false,
          "name": "idealPrice",
          "type": "uint256"
        },
        {
          "indexed": false,
          "name": "price",
          "type": "uint256"
        },
        {
          "indexed": false,
          "name": "refund",
          "type": "uint256"
        }
      ],
      "name": "revealEvent",
      "type": "event"
    },
    {
      "constant": false,
      "inputs": [
        {
          "name": "_name",
          "type": "string"
        },
        {
          "name": "_category",
          "type": "string"
        },
        {
          "name": "_imageLink",
          "type": "string"
        },
        {
          "name": "_descLink",
          "type": "string"
        },
        {
          "name": "_startTime",
          "type": "uint256"
        },
        {
          "name": "_endTime",
          "type": "uint256"
        },
        {
          "name": "_startPrice",
          "type": "uint256"
        },
        {
          "name": "condition",
          "type": "uint256"
        }
      ],
      "name": "addProductToStore",
      "outputs": [],
      "payable": false,
      "stateMutability": "nonpayable",
      "type": "function"
    },
    {
      "constant": true,
      "inputs": [
        {
          "name": "value",
          "type": "uint256"
        },
        {
          "name": "secret",
          "type": "string"
        }
      ],
      "name": "testHash",
      "outputs": [
        {
          "name": "",
          "type": "bytes32"
        }
      ],
      "payable": false,
      "stateMutability": "view",
      "type": "function"
    },
    {
      "constant": false,
      "inputs": [
        {
          "name": "_productId",
          "type": "uint256"
        },
        {
          "name": "_bytesHash",
          "type": "bytes32"
        }
      ],
      "name": "bid",
      "outputs": [],
      "payable": true,
      "stateMutability": "payable",
      "type": "function"
    },
    {
      "constant": true,
      "inputs": [
        {
          "name": "_productId",
          "type": "uint256"
        },
        {
          "name": "_idealPrice",
          "type": "uint256"
        },
        {
          "name": "_secret",
          "type": "string"
        }
      ],
      "name": "getBidById",
      "outputs": [
        {
          "name": "",
          "type": "uint256"
        },
        {
          "name": "",
          "type": "uint256"
        },
        {
          "name": "",
          "type": "bool"
        },
        {
          "name": "",
          "type": "address"
        }
      ],
      "payable": false,
      "stateMutability": "view",
      "type": "function"
    },
    {
      "constant": false,
      "inputs": [
        {
          "name": "_productId",
          "type": "uint256"
        },
        {
          "name": "_idealPrice",
          "type": "uint256"
        },
        {
          "name": "_secret",
          "type": "string"
        }
      ],
      "name": "revealBid",
      "outputs": [],
      "payable": false,
      "stateMutability": "nonpayable",
      "type": "function"
    },
    {
      "constant": true,
      "inputs": [
        {
          "name": "_productId",
          "type": "uint256"
        }
      ],
      "name": "getHighestBidInfo",
      "outputs": [
        {
          "name": "",
          "type": "address"
        },
        {
          "name": "",
          "type": "uint256"
        },
        {
          "name": "",
          "type": "uint256"
        },
        {
          "name": "",
          "type": "uint256"
        }
      ],
      "payable": false,
      "stateMutability": "view",
      "type": "function"
    },
    {
      "constant": true,
      "inputs": [
        {
          "name": "_productId",
          "type": "uint256"
        }
      ],
      "name": "getProductById",
      "outputs": [
        {
          "name": "",
          "type": "uint256"
        },
        {
          "name": "",
          "type": "string"
        },
        {
          "name": "",
          "type": "string"
        },
        {
          "name": "",
          "type": "string"
        },
        {
          "name": "",
          "type": "string"
        },
        {
          "name": "",
          "type": "uint256"
        },
        {
          "name": "",
          "type": "uint256"
        },
        {
          "name": "",
          "type": "uint256"
        },
        {
          "name": "",
          "type": "uint256"
        },
        {
          "name": "",
          "type": "address"
        },
        {
          "name": "",
          "type": "uint256"
        }
      ],
      "payable": false,
      "stateMutability": "view",
      "type": "function"
    },
    {
      "constant": false,
      "inputs": [
        {
          "name": "_productId",
          "type": "uint256"
        }
      ],
      "name": "finalaizeAuction",
      "outputs": [],
      "payable": false,
      "stateMutability": "nonpayable",
      "type": "function"
    },
    {
      "constant": true,
      "inputs": [
        {
          "name": "_productId",
          "type": "uint256"
        }
      ],
      "name": "getEscrowInfo",
      "outputs": [
        {
          "name": "",
          "type": "address"
        },
        {
          "name": "",
          "type": "address"
        },
        {
          "name": "",
          "type": "address"
        },
        {
          "name": "",
          "type": "uint256"
        },
        {
          "name": "",
          "type": "uint256"
        }
      ],
      "payable": false,
      "stateMutability": "view",
      "type": "function"
    },
    {
      "constant": false,
      "inputs": [
        {
          "name": "_productId",
          "type": "uint256"
        }
      ],
      "name": "giveToSeller",
      "outputs": [],
      "payable": false,
      "stateMutability": "nonpayable",
      "type": "function"
    },
    {
      "constant": false,
      "inputs": [
        {
          "name": "_productId",
          "type": "uint256"
        }
      ],
      "name": "giveToBuyer",
      "outputs": [],
      "payable": false,
      "stateMutability": "nonpayable",
      "type": "function"
    }
  ],
  "bytecode": "0x608060405234801561001057600080fd5b506000808190555061300a806100276000396000f3006080604052600436106100c5576000357c0100000000000000000000000000000000000000000000000000000000900463ffffffff1680630833fa21146100ca57806321fca653146100f75780633cc203ac146101245780633f70c2b41461015157806347e6afed146103985780635cd96f0d146104055780638646405e14610494578063a489d5d714610575578063a508b955146105f2578063b4392fd614610755578063c897d5a61461082b578063e52071e414610856578063ea1591bb146108d8575b600080fd5b3480156100d657600080fd5b506100f560048036038101908080359060200190929190505050610906565b005b34801561010357600080fd5b50610122600480360381019080803590602001909291905050506109f5565b005b34801561013057600080fd5b5061014f60048036038101908080359060200190929190505050610d33565b005b34801561015d57600080fd5b5061017c60048036038101908080359060200190929190505050610e1c565b604051808c8152602001806020018060200180602001806020018b81526020018a81526020018981526020018881526020018773ffffffffffffffffffffffffffffffffffffffff1673ffffffffffffffffffffffffffffffffffffffff16815260200186815260200185810385528f818151815260200191508051906020019080838360005b8381101561021e578082015181840152602081019050610203565b50505050905090810190601f16801561024b5780820380516001836020036101000a031916815260200191505b5085810384528e818151815260200191508051906020019080838360005b83811015610284578082015181840152602081019050610269565b50505050905090810190601f1680156102b15780820380516001836020036101000a031916815260200191505b5085810383528d818151815260200191508051906020019080838360005b838110156102ea5780820151818401526020810190506102cf565b50505050905090810190601f1680156103175780820380516001836020036101000a031916815260200191505b5085810382528c818151815260200191508051906020019080838360005b83811015610350578082015181840152602081019050610335565b50505050905090810190601f16801561037d5780820380516001836020036101000a031916815260200191505b509f5050505050505050505050505050505060405180910390f35b3480156103a457600080fd5b506103c3600480360381019080803590602001909291905050506112c2565b604051808273ffffffffffffffffffffffffffffffffffffffff1673ffffffffffffffffffffffffffffffffffffffff16815260200191505060405180910390f35b34801561041157600080fd5b5061047660048036038101908080359060200190929190803590602001908201803590602001908080601f01602080910402602001604051908101604052809392919081815260200183838082843782019150505050505091929192905050506112f5565b60405180826000191660001916815260200191505060405180910390f35b3480156104a057600080fd5b506104bf600480360381019080803590602001909291905050506113e2565b604051808673ffffffffffffffffffffffffffffffffffffffff1673ffffffffffffffffffffffffffffffffffffffff1681526020018573ffffffffffffffffffffffffffffffffffffffff1673ffffffffffffffffffffffffffffffffffffffff1681526020018473ffffffffffffffffffffffffffffffffffffffff1673ffffffffffffffffffffffffffffffffffffffff1681526020018381526020018281526020019550505050505060405180910390f35b34801561058157600080fd5b506105f06004803603810190808035906020019092919080359060200190929190803590602001908201803590602001908080601f0160208091040260200160405190810160405280939291908181526020018383808284378201915050505050509192919290505050611502565b005b3480156105fe57600080fd5b50610753600480360381019080803590602001908201803590602001908080601f0160208091040260200160405190810160405280939291908181526020018383808284378201915050505050509192919290803590602001908201803590602001908080601f0160208091040260200160405190810160405280939291908181526020018383808284378201915050505050509192919290803590602001908201803590602001908080601f0160208091040260200160405190810160405280939291908181526020018383808284378201915050505050509192919290803590602001908201803590602001908080601f0160208091040260200160405190810160405280939291908181526020018383808284378201915050505050509192919290803590602001909291908035906020019092919080359060200190929190803590602001909291905050506119d7565b005b34801561076157600080fd5b506107d06004803603810190808035906020019092919080359060200190929190803590602001908201803590602001908080601f0160208091040260200160405190810160405280939291908181526020018383808284378201915050505050509192919290505050611c9b565b60405180858152602001848152602001831515151581526020018273ffffffffffffffffffffffffffffffffffffffff1673ffffffffffffffffffffffffffffffffffffffff16815260200194505050505060405180910390f35b34801561083757600080fd5b50610840611f26565b6040518082815260200191505060405180910390f35b34801561086257600080fd5b5061088160048036038101908080359060200190929190505050611f2c565b604051808573ffffffffffffffffffffffffffffffffffffffff1673ffffffffffffffffffffffffffffffffffffffff16815260200184815260200183815260200182815260200194505050505060405180910390f35b610904600480360381019080803590602001909291908035600019169060200190929190505050612378565b005b60006003600083815260200190815260200160002060009054906101000a900473ffffffffffffffffffffffffffffffffffffffff1690508073ffffffffffffffffffffffffffffffffffffffff16637e327b88336040518263ffffffff167c0100000000000000000000000000000000000000000000000000000000028152600401808273ffffffffffffffffffffffffffffffffffffffff1673ffffffffffffffffffffffffffffffffffffffff168152602001915050600060405180830381600087803b1580156109d957600080fd5b505af11580156109ed573d6000803e3d6000fd5b505050505050565b6000806000806000806002600088815260200190815260200160002060009054906101000a900473ffffffffffffffffffffffffffffffffffffffff169550600160008773ffffffffffffffffffffffffffffffffffffffff1673ffffffffffffffffffffffffffffffffffffffff1681526020019081526020016000206000888152602001908152602001600020945084600c0160009054906101000a900473ffffffffffffffffffffffffffffffffffffffff1693508592503391508373ffffffffffffffffffffffffffffffffffffffff168273ffffffffffffffffffffffffffffffffffffffff1614158015610b1b57508273ffffffffffffffffffffffffffffffffffffffff168273ffffffffffffffffffffffffffffffffffffffff1614155b1515610b2657600080fd5b60006002811115610b3357fe5b8560080160009054906101000a900460ff166002811115610b5057fe5b141515610b5c57600080fd5b600085600901541415610b945760028560080160006101000a81548160ff02191690836002811115610b8a57fe5b0217905550610bbb565b60018560080160006101000a81548160ff02191690836002811115610bb557fe5b02179055505b84600d0154848484610bcb61254f565b808473ffffffffffffffffffffffffffffffffffffffff1673ffffffffffffffffffffffffffffffffffffffff1681526020018373ffffffffffffffffffffffffffffffffffffffff1673ffffffffffffffffffffffffffffffffffffffff1681526020018273ffffffffffffffffffffffffffffffffffffffff1673ffffffffffffffffffffffffffffffffffffffff16815260200193505050506040518091039082f080158015610c82573d6000803e3d6000fd5b5090509050806003600089815260200190815260200160002060006101000a81548173ffffffffffffffffffffffffffffffffffffffff021916908373ffffffffffffffffffffffffffffffffffffffff1602179055508373ffffffffffffffffffffffffffffffffffffffff166108fc86600d015487600b0154039081150290604051600060405180830381858888f19350505050158015610d29573d6000803e3d6000fd5b5050505050505050565b6003600082815260200190815260200160002060009054906101000a900473ffffffffffffffffffffffffffffffffffffffff1673ffffffffffffffffffffffffffffffffffffffff1663ddad1137336040518263ffffffff167c0100000000000000000000000000000000000000000000000000000000028152600401808273ffffffffffffffffffffffffffffffffffffffff1673ffffffffffffffffffffffffffffffffffffffff168152602001915050600060405180830381600087803b158015610e0157600080fd5b505af1158015610e15573d6000803e3d6000fd5b5050505050565b60006060806060806000806000806000806000610e3761255f565b600260008f815260200190815260200160002060009054906101000a900473ffffffffffffffffffffffffffffffffffffffff169150600160008373ffffffffffffffffffffffffffffffffffffffff1673ffffffffffffffffffffffffffffffffffffffff16815260200190815260200160002060008f81526020019081526020016000206101c0604051908101604052908160008201548152602001600182018054600181600116156101000203166002900480601f016020809104026020016040519081016040528092919081815260200182805460018160011615610100020316600290048015610f6d5780601f10610f4257610100808354040283529160200191610f6d565b820191906000526020600020905b815481529060010190602001808311610f5057829003601f168201915b50505050508152602001600282018054600181600116156101000203166002900480601f01602080910402602001604051908101604052809291908181526020018280546001816001161561010002031660029004801561100f5780601f10610fe45761010080835404028352916020019161100f565b820191906000526020600020905b815481529060010190602001808311610ff257829003601f168201915b50505050508152602001600382018054600181600116156101000203166002900480601f0160208091040260200160405190810160405280929190818152602001828054600181600116156101000203166002900480156110b15780601f10611086576101008083540402835291602001916110b1565b820191906000526020600020905b81548152906001019060200180831161109457829003601f168201915b50505050508152602001600482018054600181600116156101000203166002900480601f0160208091040260200160405190810160405280929190818152602001828054600181600116156101000203166002900480156111535780601f1061112857610100808354040283529160200191611153565b820191906000526020600020905b81548152906001019060200180831161113657829003601f168201915b505050505081526020016005820154815260200160068201548152602001600782015481526020016008820160009054906101000a900460ff16600281111561119857fe5b60028111156111a357fe5b81526020016008820160019054906101000a900460ff1660018111156111c557fe5b60018111156111d057fe5b815260200160098201548152602001600b8201548152602001600c820160009054906101000a900473ffffffffffffffffffffffffffffffffffffffff1673ffffffffffffffffffffffffffffffffffffffff1673ffffffffffffffffffffffffffffffffffffffff168152602001600d820154815250509050806000015181602001518260400151836060015184608001518560c001518660e001518760a00151886101000151600281111561128357fe5b8961018001518a61016001518999508898508797508696509c509c509c509c509c509c509c509c509c509c509c50505091939597999b90929496989a50565b60036020528060005260406000206000915054906101000a900473ffffffffffffffffffffffffffffffffffffffff1681565b60006060600084846040516020018083815260200182805190602001908083835b60208310151561133b5780518252602082019150602081019050602083039250611316565b6001836020036101000a038019825116818451168082178552505050505050905001925050506040516020818303038152906040529150816040518082805190602001908083835b6020831015156113a85780518252602082019150602081019050602083039250611383565b6001836020036101000a03801982511681845116808217855250505050505090500191505060405180910390209050809250505092915050565b60008060008060008060006003600089815260200190815260200160002060009054906101000a900473ffffffffffffffffffffffffffffffffffffffff1691508190508073ffffffffffffffffffffffffffffffffffffffff1663f3d259046040518163ffffffff167c010000000000000000000000000000000000000000000000000000000002815260040160a060405180830381600087803b15801561148a57600080fd5b505af115801561149e573d6000803e3d6000fd5b505050506040513d60a08110156114b457600080fd5b81019080805190602001909291908051906020019092919080519060200190929190805190602001909291908051906020019092919050505096509650965096509650505091939590929450565b60008060606000806000806000600260008c815260200190815260200160002060009054906101000a900473ffffffffffffffffffffffffffffffffffffffff169750600160008973ffffffffffffffffffffffffffffffffffffffff1673ffffffffffffffffffffffffffffffffffffffff16815260200190815260200160002060008c8152602001908152602001600020965089896040516020018083815260200182805190602001908083835b6020831015156115d757805182526020820191506020810190506020830392506115b2565b6001836020036101000a038019825116818451168082178552505050505050905001925050506040516020818303038152906040529550856040518082805190602001908083835b602083101515611644578051825260208201915060208101905060208303925061161f565b6001836020036101000a0380198251168184511680821785525050505050509050019150506040518091039020945086600a0160003373ffffffffffffffffffffffffffffffffffffffff1673ffffffffffffffffffffffffffffffffffffffff1681526020019081526020016000206000866000191660001916815260200190815260200160002093508360020160009054906101000a900460ff161515156116ed57600080fd5b60008460020160019054906101000a900473ffffffffffffffffffffffffffffffffffffffff1673ffffffffffffffffffffffffffffffffffffffff1611151561173657600080fd5b60018460020160006101000a81548160ff02191690831515021790555083600101549250600091508990508083101561177157829150611916565b86600b01548111156118f657600087600c0160009054906101000a900473ffffffffffffffffffffffffffffffffffffffff1673ffffffffffffffffffffffffffffffffffffffff161415611823573387600c0160006101000a81548173ffffffffffffffffffffffffffffffffffffffff021916908373ffffffffffffffffffffffffffffffffffffffff1602179055508087600b0181905550866005015487600d018190555080830391506118f1565b86600c0160009054906101000a900473ffffffffffffffffffffffffffffffffffffffff1673ffffffffffffffffffffffffffffffffffffffff166108fc88600b01549081150290604051600060405180830381858888f19350505050158015611891573d6000803e3d6000fd5b5086600b015487600d01819055508087600b01819055503387600c0160006101000a81548173ffffffffffffffffffffffffffffffffffffffff021916908373ffffffffffffffffffffffffffffffffffffffff16021790555080830391505b611915565b86600d0154811115611910578087600d0181905550611914565b8291505b5b5b7fe1dc1b1a81fae3888ca5e8503053beaca3e7146e567c4d2ab34c7259baba98a88b86858760010154866040518086815260200185600019166000191681526020018481526020018381526020018281526020019550505050505060405180910390a160008211156119ca573373ffffffffffffffffffffffffffffffffffffffff166108fc839081150290604051600060405180830381858888f193505050501580156119c8573d6000803e3d6000fd5b505b5050505050505050505050565b6119df61255f565b60008081548092919060010191905055506101c06040519081016040528060005481526020018a815260200189815260200188815260200187815260200184815260200186815260200185815260200160006002811115611a3c57fe5b8152602001836001811115611a4d57fe5b6001811115611a5857fe5b81526020016000815260200160008152602001600073ffffffffffffffffffffffffffffffffffffffff1681526020016000815250905033600260008054815260200190815260200160002060006101000a81548173ffffffffffffffffffffffffffffffffffffffff021916908373ffffffffffffffffffffffffffffffffffffffff16021790555080600160003373ffffffffffffffffffffffffffffffffffffffff1673ffffffffffffffffffffffffffffffffffffffff168152602001908152602001600020600080548152602001908152602001600020600082015181600001556020820151816001019080519060200190611b5a9291906125fb565b506040820151816002019080519060200190611b779291906125fb565b506060820151816003019080519060200190611b949291906125fb565b506080820151816004019080519060200190611bb19291906125fb565b5060a0820151816005015560c0820151816006015560e082015181600701556101008201518160080160006101000a81548160ff02191690836002811115611bf557fe5b02179055506101208201518160080160016101000a81548160ff02191690836001811115611c1f57fe5b0217905550610140820151816009015561016082015181600b015561018082015181600c0160006101000a81548173ffffffffffffffffffffffffffffffffffffffff021916908373ffffffffffffffffffffffffffffffffffffffff1602179055506101a082015181600d0155905050505050505050505050565b600080600080600060606000611caf61267b565b60016000600260008e815260200190815260200160002060009054906101000a900473ffffffffffffffffffffffffffffffffffffffff1673ffffffffffffffffffffffffffffffffffffffff1673ffffffffffffffffffffffffffffffffffffffff16815260200190815260200160002060008c8152602001908152602001600020935089896040516020018083815260200182805190602001908083835b602083101515611d745780518252602082019150602081019050602083039250611d4f565b6001836020036101000a038019825116818451168082178552505050505050905001925050506040516020818303038152906040529250826040518082805190602001908083835b602083101515611de15780518252602082019150602081019050602083039250611dbc565b6001836020036101000a0380198251168184511680821785525050505050509050019150506040518091039020915083600a0160003373ffffffffffffffffffffffffffffffffffffffff1673ffffffffffffffffffffffffffffffffffffffff168152602001908152602001600020600083600019166000191681526020019081526020016000206080604051908101604052908160008201548152602001600182015481526020016002820160009054906101000a900460ff161515151581526020016002820160019054906101000a900473ffffffffffffffffffffffffffffffffffffffff1673ffffffffffffffffffffffffffffffffffffffff1673ffffffffffffffffffffffffffffffffffffffff16815250509050806000015181602001518260400151836060015197509750975097505050505093509350935093565b60005481565b6000806000806000611f3c61255f565b6002600088815260200190815260200160002060009054906101000a900473ffffffffffffffffffffffffffffffffffffffff169150600160008373ffffffffffffffffffffffffffffffffffffffff1673ffffffffffffffffffffffffffffffffffffffff16815260200190815260200160002060008881526020019081526020016000206101c0604051908101604052908160008201548152602001600182018054600181600116156101000203166002900480601f0160208091040260200160405190810160405280929190818152602001828054600181600116156101000203166002900480156120725780601f1061204757610100808354040283529160200191612072565b820191906000526020600020905b81548152906001019060200180831161205557829003601f168201915b50505050508152602001600282018054600181600116156101000203166002900480601f0160208091040260200160405190810160405280929190818152602001828054600181600116156101000203166002900480156121145780601f106120e957610100808354040283529160200191612114565b820191906000526020600020905b8154815290600101906020018083116120f757829003601f168201915b50505050508152602001600382018054600181600116156101000203166002900480601f0160208091040260200160405190810160405280929190818152602001828054600181600116156101000203166002900480156121b65780601f1061218b576101008083540402835291602001916121b6565b820191906000526020600020905b81548152906001019060200180831161219957829003601f168201915b50505050508152602001600482018054600181600116156101000203166002900480601f0160208091040260200160405190810160405280929190818152602001828054600181600116156101000203166002900480156122585780601f1061222d57610100808354040283529160200191612258565b820191906000526020600020905b81548152906001019060200180831161223b57829003601f168201915b505050505081526020016005820154815260200160068201548152602001600782015481526020016008820160009054906101000a900460ff16600281111561229d57fe5b60028111156122a857fe5b81526020016008820160019054906101000a900460ff1660018111156122ca57fe5b60018111156122d557fe5b815260200160098201548152602001600b8201548152602001600c820160009054906101000a900473ffffffffffffffffffffffffffffffffffffffff1673ffffffffffffffffffffffffffffffffffffffff1673ffffffffffffffffffffffffffffffffffffffff168152602001600d820154815250509050806101800151816101600151826101a00151836101400151955095509550955050509193509193565b60008061238361267b565b6002600086815260200190815260200160002060009054906101000a900473ffffffffffffffffffffffffffffffffffffffff169250600160008473ffffffffffffffffffffffffffffffffffffffff1673ffffffffffffffffffffffffffffffffffffffff168152602001908152602001600020600086815260200190815260200160002091508160050154341015151561241e57600080fd5b81600901600081548092919060010191905055506080604051908101604052808681526020013481526020016000151581526020013373ffffffffffffffffffffffffffffffffffffffff1681525090508082600a0160003373ffffffffffffffffffffffffffffffffffffffff1673ffffffffffffffffffffffffffffffffffffffff16815260200190815260200160002060008660001916600019168152602001908152602001600020600082015181600001556020820151816001015560408201518160020160006101000a81548160ff02191690831515021790555060608201518160020160016101000a81548173ffffffffffffffffffffffffffffffffffffffff021916908373ffffffffffffffffffffffffffffffffffffffff1602179055509050505050505050565b6040516108fd806126e283390190565b6101c0604051908101604052806000815260200160608152602001606081526020016060815260200160608152602001600081526020016000815260200160008152602001600060028111156125b157fe5b8152602001600060018111156125c357fe5b81526020016000815260200160008152602001600073ffffffffffffffffffffffffffffffffffffffff168152602001600081525090565b828054600181600116156101000203166002900490600052602060002090601f016020900481019282601f1061263c57805160ff191683800117855561266a565b8280016001018555821561266a579182015b8281111561266957825182559160200191906001019061264e565b5b50905061267791906126bc565b5090565b6080604051908101604052806000815260200160008152602001600015158152602001600073ffffffffffffffffffffffffffffffffffffffff1681525090565b6126de91905b808211156126da5760008160009055506001016126c2565b5090565b90560060806040526000600560006101000a81548160ff0219169083151502179055506040516060806108fd833981018060405281019080805190602001909291908051906020019092919080519060200190929190505050826000806101000a81548173ffffffffffffffffffffffffffffffffffffffff021916908373ffffffffffffffffffffffffffffffffffffffff16021790555081600160006101000a81548173ffffffffffffffffffffffffffffffffffffffff021916908373ffffffffffffffffffffffffffffffffffffffff16021790555080600260006101000a81548173ffffffffffffffffffffffffffffffffffffffff021916908373ffffffffffffffffffffffffffffffffffffffff1602179055505050506107d4806101296000396000f300608060405260043610610062576000357c0100000000000000000000000000000000000000000000000000000000900463ffffffff16806312065fe0146100675780637e327b8814610092578063ddad1137146100d5578063f3d2590414610118575b600080fd5b34801561007357600080fd5b5061007c6101e3565b6040518082815260200191505060405180910390f35b34801561009e57600080fd5b506100d3600480360381019080803573ffffffffffffffffffffffffffffffffffffffff169060200190929190505050610202565b005b3480156100e157600080fd5b50610116600480360381019080803573ffffffffffffffffffffffffffffffffffffffff169060200190929190505050610492565b005b34801561012457600080fd5b5061012d610721565b604051808673ffffffffffffffffffffffffffffffffffffffff1673ffffffffffffffffffffffffffffffffffffffff1681526020018573ffffffffffffffffffffffffffffffffffffffff1673ffffffffffffffffffffffffffffffffffffffff1681526020018473ffffffffffffffffffffffffffffffffffffffff1673ffffffffffffffffffffffffffffffffffffffff1681526020018381526020018281526020019550505050505060405180910390f35b60003073ffffffffffffffffffffffffffffffffffffffff1631905090565b80600160009054906101000a900473ffffffffffffffffffffffffffffffffffffffff1673ffffffffffffffffffffffffffffffffffffffff168173ffffffffffffffffffffffffffffffffffffffff1614806102ab57506000809054906101000a900473ffffffffffffffffffffffffffffffffffffffff1673ffffffffffffffffffffffffffffffffffffffff168173ffffffffffffffffffffffffffffffffffffffff16145b806103035750600260009054906101000a900473ffffffffffffffffffffffffffffffffffffffff1673ffffffffffffffffffffffffffffffffffffffff168173ffffffffffffffffffffffffffffffffffffffff16145b151561030e57600080fd5b600560009054906101000a900460ff1615151561032a57600080fd5b600660008373ffffffffffffffffffffffffffffffffffffffff1673ffffffffffffffffffffffffffffffffffffffff16815260200190815260200160002060009054906101000a900460ff1615151561038357600080fd5b6001600660008473ffffffffffffffffffffffffffffffffffffffff1673ffffffffffffffffffffffffffffffffffffffff16815260200190815260200160002060006101000a81548160ff0219169083151502179055506002600360008154600101919050819055141561048e576001600560006101000a81548160ff021916908315150217905550600160009054906101000a900473ffffffffffffffffffffffffffffffffffffffff1673ffffffffffffffffffffffffffffffffffffffff166108fc3073ffffffffffffffffffffffffffffffffffffffff16319081150290604051600060405180830381858888f1935050505015801561048c573d6000803e3d6000fd5b505b5050565b80600160009054906101000a900473ffffffffffffffffffffffffffffffffffffffff1673ffffffffffffffffffffffffffffffffffffffff168173ffffffffffffffffffffffffffffffffffffffff16148061053b57506000809054906101000a900473ffffffffffffffffffffffffffffffffffffffff1673ffffffffffffffffffffffffffffffffffffffff168173ffffffffffffffffffffffffffffffffffffffff16145b806105935750600260009054906101000a900473ffffffffffffffffffffffffffffffffffffffff1673ffffffffffffffffffffffffffffffffffffffff168173ffffffffffffffffffffffffffffffffffffffff16145b151561059e57600080fd5b600560009054906101000a900460ff161515156105ba57600080fd5b600660008373ffffffffffffffffffffffffffffffffffffffff1673ffffffffffffffffffffffffffffffffffffffff16815260200190815260200160002060009054906101000a900460ff1615151561061357600080fd5b6001600660008473ffffffffffffffffffffffffffffffffffffffff1673ffffffffffffffffffffffffffffffffffffffff16815260200190815260200160002060006101000a81548160ff0219169083151502179055506002600460008154600101919050819055141561071d576001600560006101000a81548160ff0219169083151502179055506000809054906101000a900473ffffffffffffffffffffffffffffffffffffffff1673ffffffffffffffffffffffffffffffffffffffff166108fc3073ffffffffffffffffffffffffffffffffffffffff16319081150290604051600060405180830381858888f1935050505015801561071b573d6000803e3d6000fd5b505b5050565b60008060008060008060009054906101000a900473ffffffffffffffffffffffffffffffffffffffff16600160009054906101000a900473ffffffffffffffffffffffffffffffffffffffff16600260009054906101000a900473ffffffffffffffffffffffffffffffffffffffff166004546003549450945094509450945090919293945600a165627a7a72305820c96ed64fc8c31b949fffc9467da2988ab8b9e3869f649833e06d1cdd9431d34e0029a165627a7a72305820cc704e39c988def1ac36290dadcc5d55dab1675da538cb31808aa855567a43180029",
  "source": "pragma solidity ^0.4.24;\n\ncontract EcommerceStore {\n\n    uint256 public productIndex;\n\n    constructor() public {\n        productIndex = 0;\n    }\n\n\n    //1.  \n    // 2. \n    // 3. id\n\n    struct Product {\n\n\n        //\n        uint id;   //idid\n        string name; //\n        string category; //\n        string imageLink; //ipfs\n        string descLink;  //ipfs\n\n\n        // \n        // \n        // \n        // Opensoldunsold\n        // \n        uint startPrice;\n        uint auctionStartTime;\n        uint auctionEndTime;\n\n        ProductStatus status;\n        ProductCondition condition;\n\n        //\n        uint totalBids; //\n\n        //\n        //Byes32\n        mapping(address => mapping(bytes32 => Bid)) bids;\n\n\n        //\n        uint highestBid;   //\n        address highestBidder; //\n        uint secondHighestBid; //\n    }\n\n    enum ProductStatus {Open, Sold, Unsold}\n    enum ProductCondition {Used, New}\n\n\n    // stores\n    mapping(address => mapping(uint => Product)) stores;\n\n    //\n    mapping(uint => address) productIdToOwner;\n\n    function addProductToStore(string _name, string _category, string _imageLink, string _descLink, uint _startTime, uint _endTime, uint _startPrice, uint condition) public {\n        productIndex++;\n        //id++\n\n        Product memory product = Product({\n            id : productIndex,\n            name : _name,\n            category : _category,\n            imageLink : _imageLink,\n            descLink : _descLink,\n\n            startPrice : _startPrice,\n            auctionStartTime : _startTime,\n            auctionEndTime : _endTime,\n\n            status : ProductStatus.Open,\n            condition : ProductCondition(condition),\n\n            highestBid : 0,\n            highestBidder : 0,\n            secondHighestBid : 0,\n            totalBids : 0\n\n            });\n\n\n        productIdToOwner[productIndex] = msg.sender;\n        stores[msg.sender][productIndex] = product;\n    }\n\n    function testHash(uint value, string secret) public view returns (bytes32) {\n        bytes memory bytesInfo = abi.encodePacked(value, secret);\n        bytes32 bytesHash = keccak256(bytesInfo);\n        return bytesHash;\n    }\n\n\n    // \n    // \t1. ID\n    // \t2. \n    // \t3. \n    // \t4. \n\n    struct Bid {\n        uint productId;\n        uint price;  //msg.value\n        bool isRevealed;\n        address bidder;\n    }\n\n    // \n    //\n    // 1. id\n    // 2. Productbids\n    // mapping(address => mapping(bytes32 => Bid)) bids;\n\n    // function bid(uint _productId, uint _idealPrice, string _secret) public payable {\n\n    function bid(uint _productId, bytes32 _bytesHash) public payable {\n\n        // bytes memory bytesInfo = abi.encodePacked(_idealPrice, _secret);\n        // bytes32 bytesHash = keccak256(bytesInfo);\n\n        address owner = productIdToOwner[_productId];\n\n        //storagesotres\n        Product storage product = stores[owner][_productId];\n\n        //\n        require(msg.value >= product.startPrice);\n\n        product.totalBids++;\n        Bid memory bidLocal = Bid(_productId, msg.value, false, msg.sender);\n        product.bids[msg.sender][_bytesHash] = bidLocal;\n    }\n\n    //\n    function getBidById(uint _productId, uint _idealPrice, string _secret) public view returns (uint, uint, bool, address) {\n\n        Product storage product = stores[productIdToOwner[_productId]][_productId];\n\n        bytes memory bytesInfo = abi.encodePacked(_idealPrice, _secret);\n        bytes32 bytesHash = keccak256(bytesInfo);\n\n        Bid memory bidLocal = product.bids[msg.sender][bytesHash];\n\n        return (bidLocal.productId, bidLocal.price, bidLocal.isRevealed, bidLocal.bidder);\n    }\n\n    event revealEvent(uint productid, bytes32 bidId, uint idealPrice, uint price, uint refund);\n\n    function revealBid(uint _productId, uint _idealPrice, string _secret) public {\n        address owner = productIdToOwner[_productId];\n        Product storage product = stores[owner][_productId];\n\n        bytes memory bytesInfo = abi.encodePacked(_idealPrice, _secret);\n        bytes32 bidId = keccak256(bytesInfo);\n\n        //mapping(address => mapping(bytes32 => Bid)) bids;\n\n        //, storage\n        Bid storage currBid = product.bids[msg.sender][bidId];\n\n        // require(now > product.auctionStartTime);\n        require(!currBid.isRevealed);\n        require(currBid.bidder > 0);\n        //\n\n        currBid.isRevealed = true;\n\n        //bid\n        uint confusePrice = currBid.price;\n\n        uint refund = 0;\n\n        uint idealPrice = _idealPrice;\n        if (confusePrice < idealPrice) {\n            //1\n            refund = confusePrice;\n        } else {\n            if (idealPrice > product.highestBid) {\n                if (product.highestBidder == 0) {\n                    //\n                    //2\n                    product.highestBidder = msg.sender;\n                    product.highestBid = idealPrice;\n                    product.secondHighestBid = product.startPrice;\n                    refund = confusePrice - idealPrice;\n                } else {\n                    //3\n                    product.highestBidder.transfer(product.highestBid);\n                    product.secondHighestBid = product.highestBid;\n                    product.highestBid = idealPrice;\n                    product.highestBidder = msg.sender;\n                    refund = confusePrice - idealPrice;\n                }\n            } else {\n                //4\n                if (idealPrice > product.secondHighestBid) {\n                    //4\n                    product.secondHighestBid = idealPrice;\n                } else {\n                    //5\n                    refund = confusePrice;\n                }\n            }\n        }\n\n        emit revealEvent(_productId, bidId, confusePrice, currBid.price, refund);\n\n        if (refund > 0) {\n            msg.sender.transfer(refund);\n        }\n    }\n\n    function getHighestBidInfo(uint _productId) public view returns (address, uint, uint, uint) {\n        address owner = productIdToOwner[_productId];\n        Product memory product = stores[owner][_productId];\n        return (product.highestBidder, product.highestBid, product.secondHighestBid, product.totalBids);\n    }\n\n\n\n    //id\n    function getProductById(uint _productId) public view returns (uint, string, string, string, string, uint, uint, uint, uint, address, uint){\n        address owner = productIdToOwner[_productId];\n        Product memory product = stores[owner][_productId];\n\n        return (product.id, product.name, product.category, product.imageLink, product.descLink, product.auctionStartTime, product.auctionEndTime, product.startPrice, uint(product.status), product.highestBidder, product.highestBid);\n    }\n\n\n    //keyidvalue\n    mapping(uint => address) public productToEscrow;\n\n    function finalaizeAuction(uint _productId) public {\n\n        address owner = productIdToOwner[_productId];\n        Product storage product = stores[owner][_productId];\n\n        address buyer = product.highestBidder;\n        address seller = owner;\n        address arbiter = msg.sender;\n        require(arbiter != buyer && arbiter != seller);\n        //require(now > product.auctionEndTime);\n\n        require(product.status == ProductStatus.Open);\n\n        if (product.totalBids == 0) {\n            product.status = ProductStatus.Unsold;\n        } else {\n            product.status = ProductStatus.Sold;\n        }\n\n        //.value()\n        //feed.info.value(10).gas(800)();\n        //constructorpayable\n        address escrow = (new Escrow).value(product.secondHighestBid)(buyer, seller, arbiter);\n        productToEscrow[_productId] = escrow;\n        // 30- 20 = 10  3020\n        buyer.transfer(product.highestBid - product.secondHighestBid);\n    }\n\n    function getEscrowInfo(uint _productId) public view returns (address, address, address, uint, uint) {\n        address escrow = productToEscrow[_productId];\n        Escrow instanceContract = Escrow(escrow);\n        return instanceContract.escrowInfo();\n    }\n\n    function giveToSeller(uint _productId) public {\n        address contractAddr = productToEscrow[_productId];\n        Escrow(contractAddr).giveMoneyToSeller(msg.sender);\n    }\n\n    function giveToBuyer(uint _productId) public {\n        Escrow(productToEscrow[_productId]).giveMoneyToBuyer(msg.sender);\n    }\n\n}\n\ncontract Escrow {\n\n    // \n    // 1. \n    address buyer;\n    // 2. \n    address seller;\n    // 3. \n    address arbiter;\n    // 4. \n    uint sellerVotesCount;\n    // 5. \n    uint buyerVotesCount;\n\n    bool isSpent = false;\n\n    mapping(address => bool) addressVotedMap;\n\n    constructor(address _buyer, address _seller, address _arbiter) public payable {\n        buyer = _buyer;\n        seller = _seller;\n        arbiter = _arbiter;\n    }\n\n    function getBalance() public view returns (uint) {\n        return address(this).balance;\n    }\n\n    function escrowInfo() public view returns (address, address, address, uint, uint) {\n        return (buyer, seller, arbiter, buyerVotesCount, sellerVotesCount);\n    }\n\n    // \n    //\n    function giveMoneyToSeller(address caller) callerRestrict(caller) public {\n        require(!isSpent);\n        //true\n        require(!addressVotedMap[caller]);\n        addressVotedMap[caller] = true;\n\n        //sellerVotesCount++;\n        if (++sellerVotesCount == 2) {\n            isSpent = true;\n            seller.transfer(address(this).balance);\n        }\n    }\n\n    //\n    function giveMoneyToBuyer(address caller) callerRestrict(caller) public {\n        require(!isSpent);\n        require(!addressVotedMap[caller]);\n        addressVotedMap[caller] = true;\n\n        if (++buyerVotesCount == 2) {\n            isSpent = true;\n            buyer.transfer(address(this).balance);\n        }\n    }\n\n    modifier callerRestrict(address caller) {\n        require(caller == seller || caller == buyer || caller == arbiter);\n        _;\n    }\n}\n",
  "sourcePath": "/Users/duke/go/src/01_/01_shanghai_term1/08-ebay-eth/project/contracts/EcommerceStore.sol",
  "compiler": {
    "name": "solc",
    "version": "0.4.24+commit.e67f0147.Emscripten.clang"
  },
  "schemaVersion": "2.0.1",
  "updatedAt": "2018-12-01T06:36:07.319Z"
}