{
  "contractName": "Escrow",
  "abi": [
    {
      "inputs": [
        {
          "name": "_buyer",
          "type": "address"
        },
        {
          "name": "_seller",
          "type": "address"
        },
        {
          "name": "_arbiter",
          "type": "address"
        }
      ],
      "payable": true,
      "stateMutability": "payable",
      "type": "constructor"
    },
    {
      "constant": true,
      "inputs": [],
      "name": "getBalance",
      "outputs": [
        {
          "name": "",
          "type": "uint256"
        }
      ],
      "payable": false,
      "stateMutability": "view",
      "type": "function"
    },
    {
      "constant": true,
      "inputs": [],
      "name": "escrowInfo",
      "outputs": [
        {
          "name": "",
          "type": "address"
        },
        {
          "name": "",
          "type": "address"
        },
        {
          "name": "",
          "type": "address"
        },
        {
          "name": "",
          "type": "uint256"
        },
        {
          "name": "",
          "type": "uint256"
        }
      ],
      "payable": false,
      "stateMutability": "view",
      "type": "function"
    },
    {
      "constant": false,
      "inputs": [
        {
          "name": "caller",
          "type": "address"
        }
      ],
      "name": "giveMoneyToSeller",
      "outputs": [],
      "payable": false,
      "stateMutability": "nonpayable",
      "type": "function"
    },
    {
      "constant": false,
      "inputs": [
        {
          "name": "caller",
          "type": "address"
        }
      ],
      "name": "giveMoneyToBuyer",
      "outputs": [],
      "payable": false,
      "stateMutability": "nonpayable",
      "type": "function"
    }
  ],
  "bytecode": "0x60806040526000600560006101000a81548160ff0219169083151502179055506040516060806108fd833981018060405281019080805190602001909291908051906020019092919080519060200190929190505050826000806101000a81548173ffffffffffffffffffffffffffffffffffffffff021916908373ffffffffffffffffffffffffffffffffffffffff16021790555081600160006101000a81548173ffffffffffffffffffffffffffffffffffffffff021916908373ffffffffffffffffffffffffffffffffffffffff16021790555080600260006101000a81548173ffffffffffffffffffffffffffffffffffffffff021916908373ffffffffffffffffffffffffffffffffffffffff1602179055505050506107d4806101296000396000f300608060405260043610610062576000357c0100000000000000000000000000000000000000000000000000000000900463ffffffff16806312065fe0146100675780637e327b8814610092578063ddad1137146100d5578063f3d2590414610118575b600080fd5b34801561007357600080fd5b5061007c6101e3565b6040518082815260200191505060405180910390f35b34801561009e57600080fd5b506100d3600480360381019080803573ffffffffffffffffffffffffffffffffffffffff169060200190929190505050610202565b005b3480156100e157600080fd5b50610116600480360381019080803573ffffffffffffffffffffffffffffffffffffffff169060200190929190505050610492565b005b34801561012457600080fd5b5061012d610721565b604051808673ffffffffffffffffffffffffffffffffffffffff1673ffffffffffffffffffffffffffffffffffffffff1681526020018573ffffffffffffffffffffffffffffffffffffffff1673ffffffffffffffffffffffffffffffffffffffff1681526020018473ffffffffffffffffffffffffffffffffffffffff1673ffffffffffffffffffffffffffffffffffffffff1681526020018381526020018281526020019550505050505060405180910390f35b60003073ffffffffffffffffffffffffffffffffffffffff1631905090565b80600160009054906101000a900473ffffffffffffffffffffffffffffffffffffffff1673ffffffffffffffffffffffffffffffffffffffff168173ffffffffffffffffffffffffffffffffffffffff1614806102ab57506000809054906101000a900473ffffffffffffffffffffffffffffffffffffffff1673ffffffffffffffffffffffffffffffffffffffff168173ffffffffffffffffffffffffffffffffffffffff16145b806103035750600260009054906101000a900473ffffffffffffffffffffffffffffffffffffffff1673ffffffffffffffffffffffffffffffffffffffff168173ffffffffffffffffffffffffffffffffffffffff16145b151561030e57600080fd5b600560009054906101000a900460ff1615151561032a57600080fd5b600660008373ffffffffffffffffffffffffffffffffffffffff1673ffffffffffffffffffffffffffffffffffffffff16815260200190815260200160002060009054906101000a900460ff1615151561038357600080fd5b6001600660008473ffffffffffffffffffffffffffffffffffffffff1673ffffffffffffffffffffffffffffffffffffffff16815260200190815260200160002060006101000a81548160ff0219169083151502179055506002600360008154600101919050819055141561048e576001600560006101000a81548160ff021916908315150217905550600160009054906101000a900473ffffffffffffffffffffffffffffffffffffffff1673ffffffffffffffffffffffffffffffffffffffff166108fc3073ffffffffffffffffffffffffffffffffffffffff16319081150290604051600060405180830381858888f1935050505015801561048c573d6000803e3d6000fd5b505b5050565b80600160009054906101000a900473ffffffffffffffffffffffffffffffffffffffff1673ffffffffffffffffffffffffffffffffffffffff168173ffffffffffffffffffffffffffffffffffffffff16148061053b57506000809054906101000a900473ffffffffffffffffffffffffffffffffffffffff1673ffffffffffffffffffffffffffffffffffffffff168173ffffffffffffffffffffffffffffffffffffffff16145b806105935750600260009054906101000a900473ffffffffffffffffffffffffffffffffffffffff1673ffffffffffffffffffffffffffffffffffffffff168173ffffffffffffffffffffffffffffffffffffffff16145b151561059e57600080fd5b600560009054906101000a900460ff161515156105ba57600080fd5b600660008373ffffffffffffffffffffffffffffffffffffffff1673ffffffffffffffffffffffffffffffffffffffff16815260200190815260200160002060009054906101000a900460ff1615151561061357600080fd5b6001600660008473ffffffffffffffffffffffffffffffffffffffff1673ffffffffffffffffffffffffffffffffffffffff16815260200190815260200160002060006101000a81548160ff0219169083151502179055506002600460008154600101919050819055141561071d576001600560006101000a81548160ff0219169083151502179055506000809054906101000a900473ffffffffffffffffffffffffffffffffffffffff1673ffffffffffffffffffffffffffffffffffffffff166108fc3073ffffffffffffffffffffffffffffffffffffffff16319081150290604051600060405180830381858888f1935050505015801561071b573d6000803e3d6000fd5b505b5050565b60008060008060008060009054906101000a900473ffffffffffffffffffffffffffffffffffffffff16600160009054906101000a900473ffffffffffffffffffffffffffffffffffffffff16600260009054906101000a900473ffffffffffffffffffffffffffffffffffffffff166004546003549450945094509450945090919293945600a165627a7a72305820c96ed64fc8c31b949fffc9467da2988ab8b9e3869f649833e06d1cdd9431d34e0029",
  "source": "pragma solidity ^0.4.24;\n\ncontract EcommerceStore {\n\n    uint256 public productIndex;\n\n    constructor() public {\n        productIndex = 0;\n    }\n\n\n    //1.  定义商品结构\n    // 2. 添加商品函数\n    // 3. 根据id获取商品函数\n\n    struct Product {\n\n\n        //第一部分：基本信息\n        uint id;   //产品id：每添加一个，id自动加一\n        string name; //产品名字\n        string category; //产品类别\n        string imageLink; //产品图片的ipfs哈希\n        string descLink;  //差评描述信息ipfs哈希\n\n\n        // 起拍价格，竞拍价格不小起拍价格\n        // 起拍时间\n        // 竞拍阶段结束时间\n        // 产品竞拍状态：Open，sold，unsold\n        // 产品的情况：新，旧\n        uint startPrice;\n        uint auctionStartTime;\n        uint auctionEndTime;\n\n        ProductStatus status;\n        ProductCondition condition;\n\n        //第二部分：竞标信息\n        uint totalBids; //所有的竞标数量\n\n        //一个商品，所有人都可以竞标，并且，同一个人可以多次竞标\n        //Byes32是理想价格与密文生成的的哈希值\n        mapping(address => mapping(bytes32 => Bid)) bids;\n\n\n        //第三部分：揭标信息\n        uint highestBid;   //最高出价\n        address highestBidder; //最高出价人\n        uint secondHighestBid; //次高价\n    }\n\n    enum ProductStatus {Open, Sold, Unsold}\n    enum ProductCondition {Used, New}\n\n\n    //定义一个存储所有商品的结构 stores\n    mapping(address => mapping(uint => Product)) stores;\n\n    //定义一个存储商品与卖家对应结构\n    mapping(uint => address) productIdToOwner;\n\n    function addProductToStore(string _name, string _category, string _imageLink, string _descLink, uint _startTime, uint _endTime, uint _startPrice, uint condition) public {\n        productIndex++;\n        //id++\n\n        Product memory product = Product({\n            id : productIndex,\n            name : _name,\n            category : _category,\n            imageLink : _imageLink,\n            descLink : _descLink,\n\n            startPrice : _startPrice,\n            auctionStartTime : _startTime,\n            auctionEndTime : _endTime,\n\n            status : ProductStatus.Open,\n            condition : ProductCondition(condition),\n\n            highestBid : 0,\n            highestBidder : 0,\n            secondHighestBid : 0,\n            totalBids : 0\n\n            });\n\n\n        productIdToOwner[productIndex] = msg.sender;\n        stores[msg.sender][productIndex] = product;\n    }\n\n    function testHash(uint value, string secret) public view returns (bytes32) {\n        bytes memory bytesInfo = abi.encodePacked(value, secret);\n        bytes32 bytesHash = keccak256(bytesInfo);\n        return bytesHash;\n    }\n\n\n    // 竞标的结构：\n    // \t1. 产品ID\n    // \t2. 转账（迷惑）价格，注意，不是理想价格\n    // \t3. 揭标与否\n    // \t4. 竞标人\n\n    struct Bid {\n        uint productId;\n        uint price;  //msg.value\n        bool isRevealed;\n        address bidder;\n    }\n\n    // 竞标函数：\n    //正常是传理想价格和密文的哈希过来，为了简化，先直接传过来，方便测试\n    // 1. 创建一个竞标（产品id，理想价格，密文）\n    // 2. 找到Product，将竞标放入bids结构中\n    // mapping(address => mapping(bytes32 => Bid)) bids;\n\n    // function bid(uint _productId, uint _idealPrice, string _secret) public payable {\n\n    function bid(uint _productId, bytes32 _bytesHash) public payable {\n\n        // bytes memory bytesInfo = abi.encodePacked(_idealPrice, _secret);\n        // bytes32 bytesHash = keccak256(bytesInfo);\n\n        address owner = productIdToOwner[_productId];\n\n        //注意，一定是storage类型，否则无法改变sotres内的产品信息\n        Product storage product = stores[owner][_productId];\n\n        //限定竞标价格不小于起拍价格\n        require(msg.value >= product.startPrice);\n\n        product.totalBids++;\n        Bid memory bidLocal = Bid(_productId, msg.value, false, msg.sender);\n        product.bids[msg.sender][_bytesHash] = bidLocal;\n    }\n\n    //返回某一个竞标的详情\n    function getBidById(uint _productId, uint _idealPrice, string _secret) public view returns (uint, uint, bool, address) {\n\n        Product storage product = stores[productIdToOwner[_productId]][_productId];\n\n        bytes memory bytesInfo = abi.encodePacked(_idealPrice, _secret);\n        bytes32 bytesHash = keccak256(bytesInfo);\n\n        Bid memory bidLocal = product.bids[msg.sender][bytesHash];\n\n        return (bidLocal.productId, bidLocal.price, bidLocal.isRevealed, bidLocal.bidder);\n    }\n\n    event revealEvent(uint productid, bytes32 bidId, uint idealPrice, uint price, uint refund);\n\n    function revealBid(uint _productId, uint _idealPrice, string _secret) public {\n        address owner = productIdToOwner[_productId];\n        Product storage product = stores[owner][_productId];\n\n        bytes memory bytesInfo = abi.encodePacked(_idealPrice, _secret);\n        bytes32 bidId = keccak256(bytesInfo);\n\n        //mapping(address => mapping(bytes32 => Bid)) bids;\n\n        //一个人可以对同一个商品竞标多次，揭标的时候也要揭标多次, storage类型\n        Bid storage currBid = product.bids[msg.sender][bidId];\n\n        // require(now > product.auctionStartTime);\n        require(!currBid.isRevealed);\n        require(currBid.bidder > 0);\n        //说明找到了这个标\n\n        currBid.isRevealed = true;\n\n        //bid中的是迷惑价格，真实价格揭标时传递进来\n        uint confusePrice = currBid.price;\n\n        uint refund = 0;\n\n        uint idealPrice = _idealPrice;\n        if (confusePrice < idealPrice) {\n            //路径1：无效交易\n            refund = confusePrice;\n        } else {\n            if (idealPrice > product.highestBid) {\n                if (product.highestBidder == 0) {\n                    //当前账户是第一个揭标人\n                    //路径2：\n                    product.highestBidder = msg.sender;\n                    product.highestBid = idealPrice;\n                    product.secondHighestBid = product.startPrice;\n                    refund = confusePrice - idealPrice;\n                } else {\n                    //路径3：不是第一个，但是出价是目前最高的，更新最高竞标人，最高价格，次高价格\n                    product.highestBidder.transfer(product.highestBid);\n                    product.secondHighestBid = product.highestBid;\n                    product.highestBid = idealPrice;\n                    product.highestBidder = msg.sender;\n                    refund = confusePrice - idealPrice;\n                }\n            } else {\n                //路径4：价格低于最高价，但是高于次高价\n                if (idealPrice > product.secondHighestBid) {\n                    //路径4：更新次高价，然后拿回自己的钱\n                    product.secondHighestBid = idealPrice;\n                } else {\n                    //路径5：路人甲，价格低于次高价，直接退款\n                    refund = confusePrice;\n                }\n            }\n        }\n\n        emit revealEvent(_productId, bidId, confusePrice, currBid.price, refund);\n\n        if (refund > 0) {\n            msg.sender.transfer(refund);\n        }\n    }\n\n    function getHighestBidInfo(uint _productId) public view returns (address, uint, uint, uint) {\n        address owner = productIdToOwner[_productId];\n        Product memory product = stores[owner][_productId];\n        return (product.highestBidder, product.highestBid, product.secondHighestBid, product.totalBids);\n    }\n\n\n\n    //根据产品id，返回产品详情\n    function getProductById(uint _productId) public view returns (uint, string, string, string, string, uint, uint, uint, uint, address, uint){\n        address owner = productIdToOwner[_productId];\n        Product memory product = stores[owner][_productId];\n\n        return (product.id, product.name, product.category, product.imageLink, product.descLink, product.auctionStartTime, product.auctionEndTime, product.startPrice, uint(product.status), product.highestBidder, product.highestBid);\n    }\n\n\n    //key是产品id，value：是第三方合约\n    mapping(uint => address) public productToEscrow;\n\n    function finalaizeAuction(uint _productId) public {\n\n        address owner = productIdToOwner[_productId];\n        Product storage product = stores[owner][_productId];\n\n        address buyer = product.highestBidder;\n        address seller = owner;\n        address arbiter = msg.sender;\n        require(arbiter != buyer && arbiter != seller);\n        //require(now > product.auctionEndTime);\n\n        require(product.status == ProductStatus.Open);\n\n        if (product.totalBids == 0) {\n            product.status = ProductStatus.Unsold;\n        } else {\n            product.status = ProductStatus.Sold;\n        }\n\n        //.value()方式进行外部调用时转钱\n        //类比feed.info.value(10).gas(800)();\n        //这是构造的时候传钱，constructor加上payable关键字\n        address escrow = (new Escrow).value(product.secondHighestBid)(buyer, seller, arbiter);\n        productToEscrow[_productId] = escrow;\n        //退还差价 30- 20 = 10 ， 30是理想出价，20是次高\n        buyer.transfer(product.highestBid - product.secondHighestBid);\n    }\n\n    function getEscrowInfo(uint _productId) public view returns (address, address, address, uint, uint) {\n        address escrow = productToEscrow[_productId];\n        Escrow instanceContract = Escrow(escrow);\n        return instanceContract.escrowInfo();\n    }\n\n    function giveToSeller(uint _productId) public {\n        address contractAddr = productToEscrow[_productId];\n        Escrow(contractAddr).giveMoneyToSeller(msg.sender);\n    }\n\n    function giveToBuyer(uint _productId) public {\n        Escrow(productToEscrow[_productId]).giveMoneyToBuyer(msg.sender);\n    }\n\n}\n\ncontract Escrow {\n\n    // 属性：\n    // 1. 买家\n    address buyer;\n    // 2. 卖家\n    address seller;\n    // 3. 仲裁人\n    address arbiter;\n    // 4. 卖家获得的票数\n    uint sellerVotesCount;\n    // 5. 买家获得的票数\n    uint buyerVotesCount;\n\n    bool isSpent = false;\n\n    mapping(address => bool) addressVotedMap;\n\n    constructor(address _buyer, address _seller, address _arbiter) public payable {\n        buyer = _buyer;\n        seller = _seller;\n        arbiter = _arbiter;\n    }\n\n    function getBalance() public view returns (uint) {\n        return address(this).balance;\n    }\n\n    function escrowInfo() public view returns (address, address, address, uint, uint) {\n        return (buyer, seller, arbiter, buyerVotesCount, sellerVotesCount);\n    }\n\n    // 方法：\n    //向卖家投票方法\n    function giveMoneyToSeller(address caller) callerRestrict(caller) public {\n        require(!isSpent);\n        //记录已经投票的状态，如果投过票，就设置为true\n        require(!addressVotedMap[caller]);\n        addressVotedMap[caller] = true;\n\n        //sellerVotesCount++;\n        if (++sellerVotesCount == 2) {\n            isSpent = true;\n            seller.transfer(address(this).balance);\n        }\n    }\n\n    //向买家投票方法\n    function giveMoneyToBuyer(address caller) callerRestrict(caller) public {\n        require(!isSpent);\n        require(!addressVotedMap[caller]);\n        addressVotedMap[caller] = true;\n\n        if (++buyerVotesCount == 2) {\n            isSpent = true;\n            buyer.transfer(address(this).balance);\n        }\n    }\n\n    modifier callerRestrict(address caller) {\n        require(caller == seller || caller == buyer || caller == arbiter);\n        _;\n    }\n}\n",
  "sourcePath": "/Users/duke/go/src/01_授课代码/01_shanghai_term1/08-ebay-eth/project/contracts/EcommerceStore.sol",
  "compiler": {
    "name": "solc",
    "version": "0.4.24+commit.e67f0147.Emscripten.clang"
  },
  "schemaVersion": "2.0.1",
  "updatedAt": "2018-12-01T06:36:06.809Z"
}